:100000000C9434000C943E000C943E000C943E0082
:100010000C943E000C943E000C943E000C943E0068
:100020000C943E000C943E000C943E000C943E0058
:100030000C943E000C943E000C943E000C943E0048
:100040000C943E000C943E000C943E000C943E0038
:100050000C943E000C943E000C943E000C943E0028
:100060000C943E000C943E0011241FBECFEFD8E04C
:10007000DEBFCDBF0E9440000C9479000C940000BC
:1000800048E050E134E087B1842787B93A9A3C9A36
:1000900085E090E0449A2FEF64E37CE021506040DB
:1000A0007040E1F700C0000028B1252728B92FEFE4
:1000B00064E37CE0215060407040E1F700C0000044
:1000C00038B92FEF60E772E0215060407040E1F7EF
:1000D00000C0000028B1232728B92FEF60E772E0A5
:1000E000215060407040E1F700C00000019791F698
:0600F000CACFF894FFCF17
:00000001FF
