:100000000C9434000C943E000C943E000C943E0082
:100010000C943E000C943E000C943E000C943E0068
:100020000C943E000C943E000C943E000C943E0058
:100030000C943E000C943E000C943E000C943E0048
:100040000C943E000C943E000C943E000C943E0038
:100050000C943E000C943E000C943E000C943E0028
:100060000C943E000C943E0011241FBECFEFD8E04C
:10007000DEBFCDBF0E946A000C949D000C9400006E
:1000800097B128E0922797B93A9A3C9A88B182278B
:1000900088B985E090E040E134E0449A429A2FEF3D
:1000A00053EF61E0215050406040E1F700C0000094
:1000B00028B1242728B928B1232728B92FEF53EFD7
:1000C00061E0215050406040E1F700C0000001971E
:1000D00021F708950E94400024E090E1339916C072
:1000E000429A3FEB47E581E0315040408040E1F7E4
:1000F00000C0000088B1822788B93FEB47E581E066
:10010000315040408040E1F700C00000449A3FEF8A
:1001100043EC89E0315040408040E1F700C00000EE
:1001200088B1892788B93FEF44E38CE031504040E3
:0E0130008040E1F700C00000D1CFF894FFCF6F
:00000001FF
